:100000000C942A000C9441030C9434000C9434009A
:100010000C9434000C9434000C9434000C94340090
:100020000C9434000C9434000C9434000C94340080
:100030000C9434000C9434000C9434000C94340070
:100040000C9434000C9434000C9434000C94340060
:100050000C94340011241FBECFE5D8E0DEBFCDBF25
:100060000E947E030C9479050C94000013BE83B7A4
:10007000816083BF83B7826083BF81E008958F92E0
:100080009F92AF92BF92CF92DF92EF92FF9218169B
:1000900019060CF050C0BC0183B7816083BF83B7E1
:1000A000826083BF072E000C880B990B0E94AC0462
:1000B0004B015C012DEB37E346E05BE30E94090452
:1000C0000E94F2030E947B046B017C012DEB37E35D
:1000D00046E057E3C501B4010E9409044B015C01ED
:1000E000C701B6010E94AA049B01AC01C501B4017D
:1000F0000E9409049B01AC0160E070E080E893E499
:100100000E9485030E947B0462BF80E090E0DC01D6
:100110008C159D05AE05BF0559F008B600FEFDCF54
:1001200028B7216028BF12BE0196A11DB11DF0CFD6
:1001300013BE81E001C080E0FF90EF90DF90CF9090
:10014000BF90AF909F908F9008958FB780688FBFBA
:1001500085B7816085BF85B7826085BF8BB78064B6
:100160008BBF80E00895823419F118F4813439F09E
:1001700068C08334A9F1843409F44AC062C04111D3
:100180000AC02AB381E090E001C0880F6A95EAF7BF
:10019000809582230BC0413009F055C02AB381E01D
:1001A00090E001C0880F6A95EAF7822B8ABB47C0AE
:1001B00041110AC027B381E090E001C0880F6A9521
:1001C000EAF7809582230AC04130E9F527B381E040
:1001D00090E001C0880F6A95EAF7822B87BB2FC099
:1001E00041110AC024B381E090E001C0880F6A95F4
:1001F000EAF7809582230AC0413029F524B381E0D3
:1002000090E001C0880F6A95EAF7822B84BB17C083
:1002100041110AC021B381E090E001C0880F6A95C6
:10022000EAF7809582230AC0413069F421B381E066
:1002300090E001C0880F6A95EAF7822B81BB83E0CA
:10024000089581E0089582E00895823419F118F448
:10025000813439F068C08334A9F1843409F44AC088
:1002600062C041110AC02BB381E090E001C0880F49
:100270006A95EAF7809582230BC0413009F055C09A
:100280002BB381E090E001C0880F6A95EAF7822BDA
:100290008BBB47C041110AC028B381E090E001C088
:1002A000880F6A95EAF7809582230AC04130E9F504
:1002B00028B381E090E001C0880F6A95EAF7822BAD
:1002C00088BB2FC041110AC025B381E090E001C076
:1002D000880F6A95EAF7809582230AC0413029F594
:1002E00025B381E090E001C0880F6A95EAF7822B80
:1002F00085BB17C041110AC022B381E090E001C064
:10030000880F6A95EAF7809582230AC0413069F424
:1003100022B381E090E001C0880F6A95EAF7822B52
:1003200082BB83E0089581E0089580E00895FA019A
:10033000823459F020F48134F1F429B309C08334B4
:1003400031F08434C1F420B303C026B301C023B319
:1003500081E090E0062E02C0880F991F0A94E2F710
:1003600030E08223932302C0959587956A95E2F742
:10037000808383E0089581E008958234D9F064F4A5
:10038000813469F52BB381E090E001C0880F6A9554
:10039000EAF782278BBB21C08334B1F08434F9F4AF
:1003A00022B381E090E001C0880F6A95EAF78227C6
:1003B00082BB13C028B381E090E001C0880F6A952A
:1003C000EAF7822788BB09C025B381E090E001C02D
:1003D000880F6A95EAF7822785BB83E0089581E05C
:1003E00008959FEB980F923028F441E00E94B300EB
:1003F00081E0089580E008959FEB980F923028F4F3
:1004000040E00E94250181E0089580E008959FEB7F
:10041000980F923028F441E00E94250181E0089570
:1004200080E008959FEB980F923020F40E94BD0168
:1004300081E0089580E008959FEB980F923020F4BA
:100440000E94970181E0089580E00895843429F4A2
:1004500040E00E94B30081E0089580E00895843474
:1004600021F40E94970181E0089580E00895CF93E0
:10047000DF9360E081E40E94070266E082E40E946C
:10048000070285E090E00E943F0060E081E40E9466
:10049000FC0166E082E40E94FC01C5E0D0E063E07C
:1004A00081E40E94120263E082E40E94120281E071
:1004B00090E00E943F00219791F763E081E40E9461
:1004C000FC0163E082E40E94FC0166E081E40E949A
:1004D000070260E082E40E94070285E090E00E944B
:1004E0003F0066E081E40E94FC0160E082E40E943B
:1004F000FC01C5E0D0E063E081E40E94120263E009
:1005000082E40E94120281E090E00E943F00219765
:1005100091F763E081E40E94FC0163E082E4DF91F3
:10052000CF910C94FC01CF93DF9300D01F92CDB7F5
:10053000DEB7AE014D5F5F4F60E081E40E941C02B8
:10054000AE014E5F5F4F63E081E40E941C02AE018A
:100550004F5F5F4F66E081E40E941C028981813019
:1005600079F460E082E40E94070266E081E40E9480
:10057000070285E090E00E943F0005E010E032C0F5
:100580008B81813019F08A818130B9F766E082E48D
:100590000E94070205E010E063E081E40E9412027D
:1005A00063E082E40E94120281E090E00E943F003A
:1005B0000150110989F763E081E40E94FC0163E0C6
:1005C00082E40E94FC0160E081E40E94FC0166E09C
:1005D00082E40E94FC0166E081E40E94070260E080
:1005E00082E4C5CF63E081E40E94120263E082E40A
:1005F0000E94120281E090E00E943F000150110928
:1006000089F760E082E40E94FC0166E081E40E94D8
:10061000FC0163E081E40E94FC0163E082E40E944B
:10062000FC0160E081E40E94070266E082E40E942F
:1006300007020E9436000E943702FDCF0E9436005A
:100640000E94A50060E081E40E94F10163E081E482
:100650000E94F10166E081E40E94F10160E082E421
:100660000E94F10163E082E40E94F10166E082E40D
:100670000E94F10162E084E40C9426020E94370299
:10068000FDCF1F920F920FB60F9211242F933F931D
:100690004F935F936F937F938F939F93AF93BF938A
:1006A000EF93FF93CF93DF931F92CDB7DEB71982FD
:1006B00081E090E00E943F00AE014F5F5F4F62E03B
:1006C00084E40E942F0289818130B1F40E943600B7
:1006D0000F90DF91CF91FF91EF91BF91AF919F91DB
:1006E0008F917F916F915F914F913F912F910F90DB
:1006F0000FBE0F901F9018950E9493020E941E0338
:100700000E943E0380E090E008955058BB27AA273E
:100710000E949D030C9427050E94190538F00E9441
:10072000200520F039F49F3F19F426F40C941605A7
:100730000EF4E095E7FB0C94E704E92F0E943805DE
:1007400058F3BA17620773078407950720F079F406
:10075000A6F50C9472050EF4E0950B2EBA2FA02D81
:100760000B01B90190010C01CA01A0011124FF275E
:10077000591B99F0593F50F4503E68F11A16F04059
:10078000A22F232F342F4427585FF3CF4695379558
:100790002795A795F0405395C9F77EF41F16BA0B1D
:1007A000620B730B840BBAF09150A1F0FF0FBB1FCB
:1007B000661F771F881FC2F70EC0BA0F621F731F14
:1007C000841F48F4879577956795B795F7959E3F71
:1007D00008F0B0CF9395880F08F09927EE0F979502
:1007E000879508950E945A0590F09F3748F491111B
:1007F00016F40C94730560E070E080E89FE30895C0
:1008000026F01B16611D711D811D0C94ED040C94C6
:1008100008050E941D040C9427050E94200558F02D
:100820000E94190540F029F45F3F29F00C94E70479
:1008300051110C9473050C9416050E94380568F349
:100840009923B1F3552391F3951B550BBB27AA2789
:1008500062177307840738F09F5F5F4F220F331FC3
:10086000441FAA1FA9F335D00E2E3AF0E0E832D08B
:1008700091505040E695001CCAF72BD0FE2F29D08E
:10088000660F771F881FBB1F261737074807AB0760
:10089000B0E809F0BB0B802DBF01FF2793585F4FD5
:1008A0003AF09E3F510578F00C94E7040C947305E0
:1008B0005F3FE4F3983ED4F3869577956795B795B7
:1008C000F7959F5FC9F7880F911D9695879597F9C2
:1008D0000895E1E0660F771F881FBB1F621773073B
:1008E0008407BA0720F0621B730B840BBA0BEE1F50
:1008F00088F7E09508950E94400588F09F5798F08A
:10090000B92F9927B751B0F0E1F0660F771F881F14
:10091000991F1AF0BA95C9F714C0B13091F00E942E
:100920007205B1E008950C947205672F782F88271F
:10093000B85F39F0B93FCCF3869577956795B39555
:10094000D9F73EF490958095709561957F4F8F4FC4
:100950009F4F0895E89409C097FB3EF490958095C9
:10096000709561957F4F8F4F9F4F9923A9F0F92F75
:1009700096E9BB279395F695879577956795B795F3
:10098000F111F8CFFAF4BB0F11F460FF1BC06F5FD9
:100990007F4F8F4F9F4F16C0882311F096E911C0EB
:1009A000772321F09EE8872F762F05C0662371F00C
:1009B00096E8862F70E060E02AF09A95660F771F20
:1009C000881FDAF7880F9695879597F9089597F914
:1009D0009F6780E870E060E00895882371F47723D2
:1009E00021F09850872B762F07C0662311F49927A2
:1009F0000DC09051862B70E060E02AF09A95660F4A
:100A0000771F881FDAF7880F9695879597F90895CD
:100A10009F3F31F0915020F4879577956795B79572
:100A2000880F911D9695879597F908959FEF80EC13
:100A3000089500240A941616170618060906089544
:100A400000240A9412161306140605060895092EAA
:100A50000394000C11F4882352F0BB0F40F4BF2B19
:100A600011F460FF04C06F5F7F4F8F4F9F4F089559
:100A700057FD9058440F551F59F05F3F71F047954F
:100A8000880F97FB991F61F09F3F79F08795089534
:100A9000121613061406551FF2CF4695F1DF08C053
:100AA000161617061806991FF1CF86957105610570
:100AB000089408950E944005A0F0BEE7B91788F495
:100AC000BB279F3860F41616B11D672F782F882733
:100AD000985FF7CF869577956795B11D9395963971
:100AE000C8F30895E894BB2766277727CB0197F9C9
:060AF0000895F894FFCF09
:00000001FF
